{
	"contracts/Artist.sol": {
		"Artist": {
			"abi": [
				{
					"inputs": [],
					"stateMutability": "nonpayable",
					"type": "constructor"
				},
				{
					"anonymous": false,
					"inputs": [
						{
							"indexed": false,
							"internalType": "address",
							"name": "_from",
							"type": "address"
						}
					],
					"name": "signContract",
					"type": "event"
				},
				{
					"inputs": [],
					"name": "ArtistOwner",
					"outputs": [
						{
							"internalType": "address",
							"name": "",
							"type": "address"
						}
					],
					"stateMutability": "view",
					"type": "function"
				},
				{
					"inputs": [],
					"name": "count",
					"outputs": [
						{
							"internalType": "uint256",
							"name": "",
							"type": "uint256"
						}
					],
					"stateMutability": "view",
					"type": "function"
				},
				{
					"inputs": [],
					"name": "getAddress",
					"outputs": [
						{
							"internalType": "address",
							"name": "",
							"type": "address"
						}
					],
					"stateMutability": "view",
					"type": "function"
				},
				{
					"inputs": [],
					"name": "getBalance",
					"outputs": [
						{
							"internalType": "uint256",
							"name": "",
							"type": "uint256"
						}
					],
					"stateMutability": "view",
					"type": "function"
				},
				{
					"inputs": [
						{
							"internalType": "string",
							"name": "contractName",
							"type": "string"
						},
						{
							"internalType": "uint256",
							"name": "_a",
							"type": "uint256"
						}
					],
					"name": "signMRC",
					"outputs": [
						{
							"internalType": "string",
							"name": "",
							"type": "string"
						}
					],
					"stateMutability": "nonpayable",
					"type": "function"
				}
			],
			"devdoc": {
				"kind": "dev",
				"methods": {},
				"version": 1
			},
			"evm": {
				"assembly": "    /* \"contracts/Artist.sol\":62:730  contract Artist {... */\n  mstore(0x40, 0x80)\n    /* \"contracts/Artist.sol\":265:322  constructor() {... */\n  callvalue\n  dup1\n  iszero\n  tag_1\n  jumpi\n  0x00\n  dup1\n  revert\ntag_1:\n  pop\n    /* \"contracts/Artist.sol\":304:314  msg.sender */\n  caller\n    /* \"contracts/Artist.sol\":290:301  ArtistOwner */\n  0x00\n  dup1\n    /* \"contracts/Artist.sol\":290:314  ArtistOwner = msg.sender */\n  0x0100\n  exp\n  dup2\n  sload\n  dup2\n  0xffffffffffffffffffffffffffffffffffffffff\n  mul\n  not\n  and\n  swap1\n  dup4\n  0xffffffffffffffffffffffffffffffffffffffff\n  and\n  mul\n  or\n  swap1\n  sstore\n  pop\n    /* \"contracts/Artist.sol\":62:730  contract Artist {... */\n  dataSize(sub_0)\n  dup1\n  dataOffset(sub_0)\n  0x00\n  codecopy\n  0x00\n  return\nstop\n\nsub_0: assembly {\n        /* \"contracts/Artist.sol\":62:730  contract Artist {... */\n      mstore(0x40, 0x80)\n      callvalue\n      dup1\n      iszero\n      tag_1\n      jumpi\n      0x00\n      dup1\n      revert\n    tag_1:\n      pop\n      jumpi(tag_2, lt(calldatasize, 0x04))\n      shr(0xe0, calldataload(0x00))\n      dup1\n      0x06661abd\n      eq\n      tag_3\n      jumpi\n      dup1\n      0x12065fe0\n      eq\n      tag_4\n      jumpi\n      dup1\n      0x38cc4831\n      eq\n      tag_5\n      jumpi\n      dup1\n      0x3c8be020\n      eq\n      tag_6\n      jumpi\n      dup1\n      0x46b349bb\n      eq\n      tag_7\n      jumpi\n    tag_2:\n      0x00\n      dup1\n      revert\n        /* \"contracts/Artist.sol\":236:256  uint256 public count */\n    tag_3:\n      tag_8\n      tag_9\n      jump\t// in\n    tag_8:\n      mload(0x40)\n      tag_10\n      swap2\n      swap1\n      tag_11\n      jump\t// in\n    tag_10:\n      mload(0x40)\n      dup1\n      swap2\n      sub\n      swap1\n      return\n        /* \"contracts/Artist.sol\":533:629  function getBalance() public view returns (uint) {... */\n    tag_4:\n      tag_12\n      tag_13\n      jump\t// in\n    tag_12:\n      mload(0x40)\n      tag_14\n      swap2\n      swap1\n      tag_11\n      jump\t// in\n    tag_14:\n      mload(0x40)\n      dup1\n      swap2\n      sub\n      swap1\n      return\n        /* \"contracts/Artist.sol\":637:727  function getAddress() public view returns (address){... */\n    tag_5:\n      tag_15\n      tag_16\n      jump\t// in\n    tag_15:\n      mload(0x40)\n      tag_17\n      swap2\n      swap1\n      tag_18\n      jump\t// in\n    tag_17:\n      mload(0x40)\n      dup1\n      swap2\n      sub\n      swap1\n      return\n        /* \"contracts/Artist.sol\":330:525  function signMRC(string memory contractName, uint256 _a) public returns(string memory) {... */\n    tag_6:\n      tag_19\n      0x04\n      dup1\n      calldatasize\n      sub\n      dup2\n      add\n      swap1\n      tag_20\n      swap2\n      swap1\n      tag_21\n      jump\t// in\n    tag_20:\n      tag_22\n      jump\t// in\n    tag_19:\n      mload(0x40)\n      tag_23\n      swap2\n      swap1\n      tag_24\n      jump\t// in\n    tag_23:\n      mload(0x40)\n      dup1\n      swap2\n      sub\n      swap1\n      return\n        /* \"contracts/Artist.sol\":85:111  address public ArtistOwner */\n    tag_7:\n      tag_25\n      tag_26\n      jump\t// in\n    tag_25:\n      mload(0x40)\n      tag_27\n      swap2\n      swap1\n      tag_18\n      jump\t// in\n    tag_27:\n      mload(0x40)\n      dup1\n      swap2\n      sub\n      swap1\n      return\n        /* \"contracts/Artist.sol\":236:256  uint256 public count */\n    tag_9:\n      sload(0x01)\n      dup2\n      jump\t// out\n        /* \"contracts/Artist.sol\":533:629  function getBalance() public view returns (uint) {... */\n    tag_13:\n        /* \"contracts/Artist.sol\":576:580  uint */\n      0x00\n        /* \"contracts/Artist.sol\":600:621  address(this).balance */\n      selfbalance\n        /* \"contracts/Artist.sol\":593:621  return address(this).balance */\n      swap1\n      pop\n        /* \"contracts/Artist.sol\":533:629  function getBalance() public view returns (uint) {... */\n      swap1\n      jump\t// out\n        /* \"contracts/Artist.sol\":637:727  function getAddress() public view returns (address){... */\n    tag_16:\n        /* \"contracts/Artist.sol\":680:687  address */\n      0x00\n        /* \"contracts/Artist.sol\":714:718  this */\n      address\n        /* \"contracts/Artist.sol\":699:719  return address(this) */\n      swap1\n      pop\n        /* \"contracts/Artist.sol\":637:727  function getAddress() public view returns (address){... */\n      swap1\n      jump\t// out\n        /* \"contracts/Artist.sol\":330:525  function signMRC(string memory contractName, uint256 _a) public returns(string memory) {... */\n    tag_22:\n        /* \"contracts/Artist.sol\":402:415  string memory */\n      0x60\n        /* \"contracts/Artist.sol\":433:457  signContract(msg.sender) */\n      0x79e93bf8a58273e1783d4d62cba0d5294e0b58896f98eec2ef883d3cc69b16c4\n        /* \"contracts/Artist.sol\":446:456  msg.sender */\n      caller\n        /* \"contracts/Artist.sol\":433:457  signContract(msg.sender) */\n      mload(0x40)\n      tag_31\n      swap2\n      swap1\n      tag_18\n      jump\t// in\n    tag_31:\n      mload(0x40)\n      dup1\n      swap2\n      sub\n      swap1\n      log1\n        /* \"contracts/Artist.sol\":499:511  contractName */\n      dup3\n        /* \"contracts/Artist.sol\":513:515  _a */\n      dup3\n        /* \"contracts/Artist.sol\":482:516  abi.encodePacked(contractName, _a) */\n      add(0x20, mload(0x40))\n      tag_32\n      swap3\n      swap2\n      swap1\n      tag_33\n      jump\t// in\n    tag_32:\n      mload(0x40)\n      0x20\n      dup2\n      dup4\n      sub\n      sub\n      dup2\n      mstore\n      swap1\n      0x40\n      mstore\n        /* \"contracts/Artist.sol\":468:517  return string(abi.encodePacked(contractName, _a)) */\n      swap1\n      pop\n        /* \"contracts/Artist.sol\":330:525  function signMRC(string memory contractName, uint256 _a) public returns(string memory) {... */\n      swap3\n      swap2\n      pop\n      pop\n      jump\t// out\n        /* \"contracts/Artist.sol\":85:111  address public ArtistOwner */\n    tag_26:\n      0x00\n      dup1\n      sload\n      swap1\n      0x0100\n      exp\n      swap1\n      div\n      0xffffffffffffffffffffffffffffffffffffffff\n      and\n      dup2\n      jump\t// out\n        /* \"#utility.yul\":7:84   */\n    tag_34:\n        /* \"#utility.yul\":44:51   */\n      0x00\n        /* \"#utility.yul\":73:78   */\n      dup2\n        /* \"#utility.yul\":62:78   */\n      swap1\n      pop\n        /* \"#utility.yul\":7:84   */\n      swap2\n      swap1\n      pop\n      jump\t// out\n        /* \"#utility.yul\":90:208   */\n    tag_35:\n        /* \"#utility.yul\":177:201   */\n      tag_65\n        /* \"#utility.yul\":195:200   */\n      dup2\n        /* \"#utility.yul\":177:201   */\n      tag_34\n      jump\t// in\n    tag_65:\n        /* \"#utility.yul\":172:175   */\n      dup3\n        /* \"#utility.yul\":165:202   */\n      mstore\n        /* \"#utility.yul\":90:208   */\n      pop\n      pop\n      jump\t// out\n        /* \"#utility.yul\":214:436   */\n    tag_11:\n        /* \"#utility.yul\":307:311   */\n      0x00\n        /* \"#utility.yul\":345:347   */\n      0x20\n        /* \"#utility.yul\":334:343   */\n      dup3\n        /* \"#utility.yul\":330:348   */\n      add\n        /* \"#utility.yul\":322:348   */\n      swap1\n      pop\n        /* \"#utility.yul\":358:429   */\n      tag_67\n        /* \"#utility.yul\":426:427   */\n      0x00\n        /* \"#utility.yul\":415:424   */\n      dup4\n        /* \"#utility.yul\":411:428   */\n      add\n        /* \"#utility.yul\":402:408   */\n      dup5\n        /* \"#utility.yul\":358:429   */\n      tag_35\n      jump\t// in\n    tag_67:\n        /* \"#utility.yul\":214:436   */\n      swap3\n      swap2\n      pop\n      pop\n      jump\t// out\n        /* \"#utility.yul\":442:568   */\n    tag_36:\n        /* \"#utility.yul\":479:486   */\n      0x00\n        /* \"#utility.yul\":519:561   */\n      0xffffffffffffffffffffffffffffffffffffffff\n        /* \"#utility.yul\":512:517   */\n      dup3\n        /* \"#utility.yul\":508:562   */\n      and\n        /* \"#utility.yul\":497:562   */\n      swap1\n      pop\n        /* \"#utility.yul\":442:568   */\n      swap2\n      swap1\n      pop\n      jump\t// out\n        /* \"#utility.yul\":574:670   */\n    tag_37:\n        /* \"#utility.yul\":611:618   */\n      0x00\n        /* \"#utility.yul\":640:664   */\n      tag_70\n        /* \"#utility.yul\":658:663   */\n      dup3\n        /* \"#utility.yul\":640:664   */\n      tag_36\n      jump\t// in\n    tag_70:\n        /* \"#utility.yul\":629:664   */\n      swap1\n      pop\n        /* \"#utility.yul\":574:670   */\n      swap2\n      swap1\n      pop\n      jump\t// out\n        /* \"#utility.yul\":676:794   */\n    tag_38:\n        /* \"#utility.yul\":763:787   */\n      tag_72\n        /* \"#utility.yul\":781:786   */\n      dup2\n        /* \"#utility.yul\":763:787   */\n      tag_37\n      jump\t// in\n    tag_72:\n        /* \"#utility.yul\":758:761   */\n      dup3\n        /* \"#utility.yul\":751:788   */\n      mstore\n        /* \"#utility.yul\":676:794   */\n      pop\n      pop\n      jump\t// out\n        /* \"#utility.yul\":800:1022   */\n    tag_18:\n        /* \"#utility.yul\":893:897   */\n      0x00\n        /* \"#utility.yul\":931:933   */\n      0x20\n        /* \"#utility.yul\":920:929   */\n      dup3\n        /* \"#utility.yul\":916:934   */\n      add\n        /* \"#utility.yul\":908:934   */\n      swap1\n      pop\n        /* \"#utility.yul\":944:1015   */\n      tag_74\n        /* \"#utility.yul\":1012:1013   */\n      0x00\n        /* \"#utility.yul\":1001:1010   */\n      dup4\n        /* \"#utility.yul\":997:1014   */\n      add\n        /* \"#utility.yul\":988:994   */\n      dup5\n        /* \"#utility.yul\":944:1015   */\n      tag_38\n      jump\t// in\n    tag_74:\n        /* \"#utility.yul\":800:1022   */\n      swap3\n      swap2\n      pop\n      pop\n      jump\t// out\n        /* \"#utility.yul\":1028:1103   */\n    tag_39:\n        /* \"#utility.yul\":1061:1067   */\n      0x00\n        /* \"#utility.yul\":1094:1096   */\n      0x40\n        /* \"#utility.yul\":1088:1097   */\n      mload\n        /* \"#utility.yul\":1078:1097   */\n      swap1\n      pop\n        /* \"#utility.yul\":1028:1103   */\n      swap1\n      jump\t// out\n        /* \"#utility.yul\":1109:1226   */\n    tag_40:\n        /* \"#utility.yul\":1218:1219   */\n      0x00\n        /* \"#utility.yul\":1215:1216   */\n      dup1\n        /* \"#utility.yul\":1208:1220   */\n      revert\n        /* \"#utility.yul\":1232:1349   */\n    tag_41:\n        /* \"#utility.yul\":1341:1342   */\n      0x00\n        /* \"#utility.yul\":1338:1339   */\n      dup1\n        /* \"#utility.yul\":1331:1343   */\n      revert\n        /* \"#utility.yul\":1355:1472   */\n    tag_42:\n        /* \"#utility.yul\":1464:1465   */\n      0x00\n        /* \"#utility.yul\":1461:1462   */\n      dup1\n        /* \"#utility.yul\":1454:1466   */\n      revert\n        /* \"#utility.yul\":1478:1595   */\n    tag_43:\n        /* \"#utility.yul\":1587:1588   */\n      0x00\n        /* \"#utility.yul\":1584:1585   */\n      dup1\n        /* \"#utility.yul\":1577:1589   */\n      revert\n        /* \"#utility.yul\":1601:1703   */\n    tag_44:\n        /* \"#utility.yul\":1642:1648   */\n      0x00\n        /* \"#utility.yul\":1693:1695   */\n      0x1f\n        /* \"#utility.yul\":1689:1696   */\n      not\n        /* \"#utility.yul\":1684:1686   */\n      0x1f\n        /* \"#utility.yul\":1677:1682   */\n      dup4\n        /* \"#utility.yul\":1673:1687   */\n      add\n        /* \"#utility.yul\":1669:1697   */\n      and\n        /* \"#utility.yul\":1659:1697   */\n      swap1\n      pop\n        /* \"#utility.yul\":1601:1703   */\n      swap2\n      swap1\n      pop\n      jump\t// out\n        /* \"#utility.yul\":1709:1889   */\n    tag_45:\n        /* \"#utility.yul\":1757:1834   */\n      0x4e487b7100000000000000000000000000000000000000000000000000000000\n        /* \"#utility.yul\":1754:1755   */\n      0x00\n        /* \"#utility.yul\":1747:1835   */\n      mstore\n        /* \"#utility.yul\":1854:1858   */\n      0x41\n        /* \"#utility.yul\":1851:1852   */\n      0x04\n        /* \"#utility.yul\":1844:1859   */\n      mstore\n        /* \"#utility.yul\":1878:1882   */\n      0x24\n        /* \"#utility.yul\":1875:1876   */\n      0x00\n        /* \"#utility.yul\":1868:1883   */\n      revert\n        /* \"#utility.yul\":1895:2176   */\n    tag_46:\n        /* \"#utility.yul\":1978:2005   */\n      tag_83\n        /* \"#utility.yul\":2000:2004   */\n      dup3\n        /* \"#utility.yul\":1978:2005   */\n      tag_44\n      jump\t// in\n    tag_83:\n        /* \"#utility.yul\":1970:1976   */\n      dup2\n        /* \"#utility.yul\":1966:2006   */\n      add\n        /* \"#utility.yul\":2108:2114   */\n      dup2\n        /* \"#utility.yul\":2096:2106   */\n      dup2\n        /* \"#utility.yul\":2093:2115   */\n      lt\n        /* \"#utility.yul\":2072:2090   */\n      0xffffffffffffffff\n        /* \"#utility.yul\":2060:2070   */\n      dup3\n        /* \"#utility.yul\":2057:2091   */\n      gt\n        /* \"#utility.yul\":2054:2116   */\n      or\n        /* \"#utility.yul\":2051:2139   */\n      iszero\n      tag_84\n      jumpi\n        /* \"#utility.yul\":2119:2137   */\n      tag_85\n      tag_45\n      jump\t// in\n    tag_85:\n        /* \"#utility.yul\":2051:2139   */\n    tag_84:\n        /* \"#utility.yul\":2159:2169   */\n      dup1\n        /* \"#utility.yul\":2155:2157   */\n      0x40\n        /* \"#utility.yul\":2148:2170   */\n      mstore\n        /* \"#utility.yul\":1938:2176   */\n      pop\n        /* \"#utility.yul\":1895:2176   */\n      pop\n      pop\n      jump\t// out\n        /* \"#utility.yul\":2182:2311   */\n    tag_47:\n        /* \"#utility.yul\":2216:2222   */\n      0x00\n        /* \"#utility.yul\":2243:2263   */\n      tag_87\n      tag_39\n      jump\t// in\n    tag_87:\n        /* \"#utility.yul\":2233:2263   */\n      swap1\n      pop\n        /* \"#utility.yul\":2272:2305   */\n      tag_88\n        /* \"#utility.yul\":2300:2304   */\n      dup3\n        /* \"#utility.yul\":2292:2298   */\n      dup3\n        /* \"#utility.yul\":2272:2305   */\n      tag_46\n      jump\t// in\n    tag_88:\n        /* \"#utility.yul\":2182:2311   */\n      swap2\n      swap1\n      pop\n      jump\t// out\n        /* \"#utility.yul\":2317:2625   */\n    tag_48:\n        /* \"#utility.yul\":2379:2383   */\n      0x00\n        /* \"#utility.yul\":2469:2487   */\n      0xffffffffffffffff\n        /* \"#utility.yul\":2461:2467   */\n      dup3\n        /* \"#utility.yul\":2458:2488   */\n      gt\n        /* \"#utility.yul\":2455:2511   */\n      iszero\n      tag_90\n      jumpi\n        /* \"#utility.yul\":2491:2509   */\n      tag_91\n      tag_45\n      jump\t// in\n    tag_91:\n        /* \"#utility.yul\":2455:2511   */\n    tag_90:\n        /* \"#utility.yul\":2529:2558   */\n      tag_92\n        /* \"#utility.yul\":2551:2557   */\n      dup3\n        /* \"#utility.yul\":2529:2558   */\n      tag_44\n      jump\t// in\n    tag_92:\n        /* \"#utility.yul\":2521:2558   */\n      swap1\n      pop\n        /* \"#utility.yul\":2613:2617   */\n      0x20\n        /* \"#utility.yul\":2607:2611   */\n      dup2\n        /* \"#utility.yul\":2603:2618   */\n      add\n        /* \"#utility.yul\":2595:2618   */\n      swap1\n      pop\n        /* \"#utility.yul\":2317:2625   */\n      swap2\n      swap1\n      pop\n      jump\t// out\n        /* \"#utility.yul\":2631:2777   */\n    tag_49:\n        /* \"#utility.yul\":2728:2734   */\n      dup3\n        /* \"#utility.yul\":2723:2726   */\n      dup2\n        /* \"#utility.yul\":2718:2721   */\n      dup4\n        /* \"#utility.yul\":2705:2735   */\n      calldatacopy\n        /* \"#utility.yul\":2769:2770   */\n      0x00\n        /* \"#utility.yul\":2760:2766   */\n      dup4\n        /* \"#utility.yul\":2755:2758   */\n      dup4\n        /* \"#utility.yul\":2751:2767   */\n      add\n        /* \"#utility.yul\":2744:2771   */\n      mstore\n        /* \"#utility.yul\":2631:2777   */\n      pop\n      pop\n      pop\n      jump\t// out\n        /* \"#utility.yul\":2783:3208   */\n    tag_50:\n        /* \"#utility.yul\":2861:2866   */\n      0x00\n        /* \"#utility.yul\":2886:2952   */\n      tag_95\n        /* \"#utility.yul\":2902:2951   */\n      tag_96\n        /* \"#utility.yul\":2944:2950   */\n      dup5\n        /* \"#utility.yul\":2902:2951   */\n      tag_48\n      jump\t// in\n    tag_96:\n        /* \"#utility.yul\":2886:2952   */\n      tag_47\n      jump\t// in\n    tag_95:\n        /* \"#utility.yul\":2877:2952   */\n      swap1\n      pop\n        /* \"#utility.yul\":2975:2981   */\n      dup3\n        /* \"#utility.yul\":2968:2973   */\n      dup2\n        /* \"#utility.yul\":2961:2982   */\n      mstore\n        /* \"#utility.yul\":3013:3017   */\n      0x20\n        /* \"#utility.yul\":3006:3011   */\n      dup2\n        /* \"#utility.yul\":3002:3018   */\n      add\n        /* \"#utility.yul\":3051:3054   */\n      dup5\n        /* \"#utility.yul\":3042:3048   */\n      dup5\n        /* \"#utility.yul\":3037:3040   */\n      dup5\n        /* \"#utility.yul\":3033:3049   */\n      add\n        /* \"#utility.yul\":3030:3055   */\n      gt\n        /* \"#utility.yul\":3027:3139   */\n      iszero\n      tag_97\n      jumpi\n        /* \"#utility.yul\":3058:3137   */\n      tag_98\n      tag_43\n      jump\t// in\n    tag_98:\n        /* \"#utility.yul\":3027:3139   */\n    tag_97:\n        /* \"#utility.yul\":3148:3202   */\n      tag_99\n        /* \"#utility.yul\":3195:3201   */\n      dup5\n        /* \"#utility.yul\":3190:3193   */\n      dup3\n        /* \"#utility.yul\":3185:3188   */\n      dup6\n        /* \"#utility.yul\":3148:3202   */\n      tag_49\n      jump\t// in\n    tag_99:\n        /* \"#utility.yul\":2867:3208   */\n      pop\n        /* \"#utility.yul\":2783:3208   */\n      swap4\n      swap3\n      pop\n      pop\n      pop\n      jump\t// out\n        /* \"#utility.yul\":3228:3568   */\n    tag_51:\n        /* \"#utility.yul\":3284:3289   */\n      0x00\n        /* \"#utility.yul\":3333:3336   */\n      dup3\n        /* \"#utility.yul\":3326:3330   */\n      0x1f\n        /* \"#utility.yul\":3318:3324   */\n      dup4\n        /* \"#utility.yul\":3314:3331   */\n      add\n        /* \"#utility.yul\":3310:3337   */\n      slt\n        /* \"#utility.yul\":3300:3422   */\n      tag_101\n      jumpi\n        /* \"#utility.yul\":3341:3420   */\n      tag_102\n      tag_42\n      jump\t// in\n    tag_102:\n        /* \"#utility.yul\":3300:3422   */\n    tag_101:\n        /* \"#utility.yul\":3458:3464   */\n      dup2\n        /* \"#utility.yul\":3445:3465   */\n      calldataload\n        /* \"#utility.yul\":3483:3562   */\n      tag_103\n        /* \"#utility.yul\":3558:3561   */\n      dup5\n        /* \"#utility.yul\":3550:3556   */\n      dup3\n        /* \"#utility.yul\":3543:3547   */\n      0x20\n        /* \"#utility.yul\":3535:3541   */\n      dup7\n        /* \"#utility.yul\":3531:3548   */\n      add\n        /* \"#utility.yul\":3483:3562   */\n      tag_50\n      jump\t// in\n    tag_103:\n        /* \"#utility.yul\":3474:3562   */\n      swap2\n      pop\n        /* \"#utility.yul\":3290:3568   */\n      pop\n        /* \"#utility.yul\":3228:3568   */\n      swap3\n      swap2\n      pop\n      pop\n      jump\t// out\n        /* \"#utility.yul\":3574:3696   */\n    tag_52:\n        /* \"#utility.yul\":3647:3671   */\n      tag_105\n        /* \"#utility.yul\":3665:3670   */\n      dup2\n        /* \"#utility.yul\":3647:3671   */\n      tag_34\n      jump\t// in\n    tag_105:\n        /* \"#utility.yul\":3640:3645   */\n      dup2\n        /* \"#utility.yul\":3637:3672   */\n      eq\n        /* \"#utility.yul\":3627:3690   */\n      tag_106\n      jumpi\n        /* \"#utility.yul\":3686:3687   */\n      0x00\n        /* \"#utility.yul\":3683:3684   */\n      dup1\n        /* \"#utility.yul\":3676:3688   */\n      revert\n        /* \"#utility.yul\":3627:3690   */\n    tag_106:\n        /* \"#utility.yul\":3574:3696   */\n      pop\n      jump\t// out\n        /* \"#utility.yul\":3702:3841   */\n    tag_53:\n        /* \"#utility.yul\":3748:3753   */\n      0x00\n        /* \"#utility.yul\":3786:3792   */\n      dup2\n        /* \"#utility.yul\":3773:3793   */\n      calldataload\n        /* \"#utility.yul\":3764:3793   */\n      swap1\n      pop\n        /* \"#utility.yul\":3802:3835   */\n      tag_108\n        /* \"#utility.yul\":3829:3834   */\n      dup2\n        /* \"#utility.yul\":3802:3835   */\n      tag_52\n      jump\t// in\n    tag_108:\n        /* \"#utility.yul\":3702:3841   */\n      swap3\n      swap2\n      pop\n      pop\n      jump\t// out\n        /* \"#utility.yul\":3847:4501   */\n    tag_21:\n        /* \"#utility.yul\":3925:3931   */\n      0x00\n        /* \"#utility.yul\":3933:3939   */\n      dup1\n        /* \"#utility.yul\":3982:3984   */\n      0x40\n        /* \"#utility.yul\":3970:3979   */\n      dup4\n        /* \"#utility.yul\":3961:3968   */\n      dup6\n        /* \"#utility.yul\":3957:3980   */\n      sub\n        /* \"#utility.yul\":3953:3985   */\n      slt\n        /* \"#utility.yul\":3950:4069   */\n      iszero\n      tag_110\n      jumpi\n        /* \"#utility.yul\":3988:4067   */\n      tag_111\n      tag_40\n      jump\t// in\n    tag_111:\n        /* \"#utility.yul\":3950:4069   */\n    tag_110:\n        /* \"#utility.yul\":4136:4137   */\n      0x00\n        /* \"#utility.yul\":4125:4134   */\n      dup4\n        /* \"#utility.yul\":4121:4138   */\n      add\n        /* \"#utility.yul\":4108:4139   */\n      calldataload\n        /* \"#utility.yul\":4166:4184   */\n      0xffffffffffffffff\n        /* \"#utility.yul\":4158:4164   */\n      dup2\n        /* \"#utility.yul\":4155:4185   */\n      gt\n        /* \"#utility.yul\":4152:4269   */\n      iszero\n      tag_112\n      jumpi\n        /* \"#utility.yul\":4188:4267   */\n      tag_113\n      tag_41\n      jump\t// in\n    tag_113:\n        /* \"#utility.yul\":4152:4269   */\n    tag_112:\n        /* \"#utility.yul\":4293:4356   */\n      tag_114\n        /* \"#utility.yul\":4348:4355   */\n      dup6\n        /* \"#utility.yul\":4339:4345   */\n      dup3\n        /* \"#utility.yul\":4328:4337   */\n      dup7\n        /* \"#utility.yul\":4324:4346   */\n      add\n        /* \"#utility.yul\":4293:4356   */\n      tag_51\n      jump\t// in\n    tag_114:\n        /* \"#utility.yul\":4283:4356   */\n      swap3\n      pop\n        /* \"#utility.yul\":4079:4366   */\n      pop\n        /* \"#utility.yul\":4405:4407   */\n      0x20\n        /* \"#utility.yul\":4431:4484   */\n      tag_115\n        /* \"#utility.yul\":4476:4483   */\n      dup6\n        /* \"#utility.yul\":4467:4473   */\n      dup3\n        /* \"#utility.yul\":4456:4465   */\n      dup7\n        /* \"#utility.yul\":4452:4474   */\n      add\n        /* \"#utility.yul\":4431:4484   */\n      tag_53\n      jump\t// in\n    tag_115:\n        /* \"#utility.yul\":4421:4484   */\n      swap2\n      pop\n        /* \"#utility.yul\":4376:4494   */\n      pop\n        /* \"#utility.yul\":3847:4501   */\n      swap3\n      pop\n      swap3\n      swap1\n      pop\n      jump\t// out\n        /* \"#utility.yul\":4507:4606   */\n    tag_54:\n        /* \"#utility.yul\":4559:4565   */\n      0x00\n        /* \"#utility.yul\":4593:4598   */\n      dup2\n        /* \"#utility.yul\":4587:4599   */\n      mload\n        /* \"#utility.yul\":4577:4599   */\n      swap1\n      pop\n        /* \"#utility.yul\":4507:4606   */\n      swap2\n      swap1\n      pop\n      jump\t// out\n        /* \"#utility.yul\":4612:4781   */\n    tag_55:\n        /* \"#utility.yul\":4696:4707   */\n      0x00\n        /* \"#utility.yul\":4730:4736   */\n      dup3\n        /* \"#utility.yul\":4725:4728   */\n      dup3\n        /* \"#utility.yul\":4718:4737   */\n      mstore\n        /* \"#utility.yul\":4770:4774   */\n      0x20\n        /* \"#utility.yul\":4765:4768   */\n      dup3\n        /* \"#utility.yul\":4761:4775   */\n      add\n        /* \"#utility.yul\":4746:4775   */\n      swap1\n      pop\n        /* \"#utility.yul\":4612:4781   */\n      swap3\n      swap2\n      pop\n      pop\n      jump\t// out\n        /* \"#utility.yul\":4787:5033   */\n    tag_56:\n        /* \"#utility.yul\":4868:4869   */\n      0x00\n        /* \"#utility.yul\":4878:4991   */\n    tag_119:\n        /* \"#utility.yul\":4892:4898   */\n      dup4\n        /* \"#utility.yul\":4889:4890   */\n      dup2\n        /* \"#utility.yul\":4886:4899   */\n      lt\n        /* \"#utility.yul\":4878:4991   */\n      iszero\n      tag_121\n      jumpi\n        /* \"#utility.yul\":4977:4978   */\n      dup1\n        /* \"#utility.yul\":4972:4975   */\n      dup3\n        /* \"#utility.yul\":4968:4979   */\n      add\n        /* \"#utility.yul\":4962:4980   */\n      mload\n        /* \"#utility.yul\":4958:4959   */\n      dup2\n        /* \"#utility.yul\":4953:4956   */\n      dup5\n        /* \"#utility.yul\":4949:4960   */\n      add\n        /* \"#utility.yul\":4942:4981   */\n      mstore\n        /* \"#utility.yul\":4914:4916   */\n      0x20\n        /* \"#utility.yul\":4911:4912   */\n      dup2\n        /* \"#utility.yul\":4907:4917   */\n      add\n        /* \"#utility.yul\":4902:4917   */\n      swap1\n      pop\n        /* \"#utility.yul\":4878:4991   */\n      jump(tag_119)\n    tag_121:\n        /* \"#utility.yul\":5025:5026   */\n      0x00\n        /* \"#utility.yul\":5016:5022   */\n      dup5\n        /* \"#utility.yul\":5011:5014   */\n      dup5\n        /* \"#utility.yul\":5007:5023   */\n      add\n        /* \"#utility.yul\":5000:5027   */\n      mstore\n        /* \"#utility.yul\":4849:5033   */\n      pop\n        /* \"#utility.yul\":4787:5033   */\n      pop\n      pop\n      pop\n      jump\t// out\n        /* \"#utility.yul\":5039:5416   */\n    tag_57:\n        /* \"#utility.yul\":5127:5130   */\n      0x00\n        /* \"#utility.yul\":5155:5194   */\n      tag_123\n        /* \"#utility.yul\":5188:5193   */\n      dup3\n        /* \"#utility.yul\":5155:5194   */\n      tag_54\n      jump\t// in\n    tag_123:\n        /* \"#utility.yul\":5210:5281   */\n      tag_124\n        /* \"#utility.yul\":5274:5280   */\n      dup2\n        /* \"#utility.yul\":5269:5272   */\n      dup6\n        /* \"#utility.yul\":5210:5281   */\n      tag_55\n      jump\t// in\n    tag_124:\n        /* \"#utility.yul\":5203:5281   */\n      swap4\n      pop\n        /* \"#utility.yul\":5290:5355   */\n      tag_125\n        /* \"#utility.yul\":5348:5354   */\n      dup2\n        /* \"#utility.yul\":5343:5346   */\n      dup6\n        /* \"#utility.yul\":5336:5340   */\n      0x20\n        /* \"#utility.yul\":5329:5334   */\n      dup7\n        /* \"#utility.yul\":5325:5341   */\n      add\n        /* \"#utility.yul\":5290:5355   */\n      tag_56\n      jump\t// in\n    tag_125:\n        /* \"#utility.yul\":5380:5409   */\n      tag_126\n        /* \"#utility.yul\":5402:5408   */\n      dup2\n        /* \"#utility.yul\":5380:5409   */\n      tag_44\n      jump\t// in\n    tag_126:\n        /* \"#utility.yul\":5375:5378   */\n      dup5\n        /* \"#utility.yul\":5371:5410   */\n      add\n        /* \"#utility.yul\":5364:5410   */\n      swap2\n      pop\n        /* \"#utility.yul\":5131:5416   */\n      pop\n        /* \"#utility.yul\":5039:5416   */\n      swap3\n      swap2\n      pop\n      pop\n      jump\t// out\n        /* \"#utility.yul\":5422:5735   */\n    tag_24:\n        /* \"#utility.yul\":5535:5539   */\n      0x00\n        /* \"#utility.yul\":5573:5575   */\n      0x20\n        /* \"#utility.yul\":5562:5571   */\n      dup3\n        /* \"#utility.yul\":5558:5576   */\n      add\n        /* \"#utility.yul\":5550:5576   */\n      swap1\n      pop\n        /* \"#utility.yul\":5622:5631   */\n      dup2\n        /* \"#utility.yul\":5616:5620   */\n      dup2\n        /* \"#utility.yul\":5612:5632   */\n      sub\n        /* \"#utility.yul\":5608:5609   */\n      0x00\n        /* \"#utility.yul\":5597:5606   */\n      dup4\n        /* \"#utility.yul\":5593:5610   */\n      add\n        /* \"#utility.yul\":5586:5633   */\n      mstore\n        /* \"#utility.yul\":5650:5728   */\n      tag_128\n        /* \"#utility.yul\":5723:5727   */\n      dup2\n        /* \"#utility.yul\":5714:5720   */\n      dup5\n        /* \"#utility.yul\":5650:5728   */\n      tag_57\n      jump\t// in\n    tag_128:\n        /* \"#utility.yul\":5642:5728   */\n      swap1\n      pop\n        /* \"#utility.yul\":5422:5735   */\n      swap3\n      swap2\n      pop\n      pop\n      jump\t// out\n        /* \"#utility.yul\":5741:5889   */\n    tag_58:\n        /* \"#utility.yul\":5843:5854   */\n      0x00\n        /* \"#utility.yul\":5880:5883   */\n      dup2\n        /* \"#utility.yul\":5865:5883   */\n      swap1\n      pop\n        /* \"#utility.yul\":5741:5889   */\n      swap3\n      swap2\n      pop\n      pop\n      jump\t// out\n        /* \"#utility.yul\":5895:6285   */\n    tag_59:\n        /* \"#utility.yul\":6001:6004   */\n      0x00\n        /* \"#utility.yul\":6029:6068   */\n      tag_131\n        /* \"#utility.yul\":6062:6067   */\n      dup3\n        /* \"#utility.yul\":6029:6068   */\n      tag_54\n      jump\t// in\n    tag_131:\n        /* \"#utility.yul\":6084:6173   */\n      tag_132\n        /* \"#utility.yul\":6166:6172   */\n      dup2\n        /* \"#utility.yul\":6161:6164   */\n      dup6\n        /* \"#utility.yul\":6084:6173   */\n      tag_58\n      jump\t// in\n    tag_132:\n        /* \"#utility.yul\":6077:6173   */\n      swap4\n      pop\n        /* \"#utility.yul\":6182:6247   */\n      tag_133\n        /* \"#utility.yul\":6240:6246   */\n      dup2\n        /* \"#utility.yul\":6235:6238   */\n      dup6\n        /* \"#utility.yul\":6228:6232   */\n      0x20\n        /* \"#utility.yul\":6221:6226   */\n      dup7\n        /* \"#utility.yul\":6217:6233   */\n      add\n        /* \"#utility.yul\":6182:6247   */\n      tag_56\n      jump\t// in\n    tag_133:\n        /* \"#utility.yul\":6272:6278   */\n      dup1\n        /* \"#utility.yul\":6267:6270   */\n      dup5\n        /* \"#utility.yul\":6263:6279   */\n      add\n        /* \"#utility.yul\":6256:6279   */\n      swap2\n      pop\n        /* \"#utility.yul\":6005:6285   */\n      pop\n        /* \"#utility.yul\":5895:6285   */\n      swap3\n      swap2\n      pop\n      pop\n      jump\t// out\n        /* \"#utility.yul\":6291:6370   */\n    tag_60:\n        /* \"#utility.yul\":6330:6337   */\n      0x00\n        /* \"#utility.yul\":6359:6364   */\n      dup2\n        /* \"#utility.yul\":6348:6364   */\n      swap1\n      pop\n        /* \"#utility.yul\":6291:6370   */\n      swap2\n      swap1\n      pop\n      jump\t// out\n        /* \"#utility.yul\":6376:6533   */\n    tag_61:\n        /* \"#utility.yul\":6481:6526   */\n      tag_136\n        /* \"#utility.yul\":6501:6525   */\n      tag_137\n        /* \"#utility.yul\":6519:6524   */\n      dup3\n        /* \"#utility.yul\":6501:6525   */\n      tag_34\n      jump\t// in\n    tag_137:\n        /* \"#utility.yul\":6481:6526   */\n      tag_60\n      jump\t// in\n    tag_136:\n        /* \"#utility.yul\":6476:6479   */\n      dup3\n        /* \"#utility.yul\":6469:6527   */\n      mstore\n        /* \"#utility.yul\":6376:6533   */\n      pop\n      pop\n      jump\t// out\n        /* \"#utility.yul\":6539:6955   */\n    tag_33:\n        /* \"#utility.yul\":6699:6702   */\n      0x00\n        /* \"#utility.yul\":6721:6816   */\n      tag_139\n        /* \"#utility.yul\":6812:6815   */\n      dup3\n        /* \"#utility.yul\":6803:6809   */\n      dup6\n        /* \"#utility.yul\":6721:6816   */\n      tag_59\n      jump\t// in\n    tag_139:\n        /* \"#utility.yul\":6714:6816   */\n      swap2\n      pop\n        /* \"#utility.yul\":6826:6901   */\n      tag_140\n        /* \"#utility.yul\":6897:6900   */\n      dup3\n        /* \"#utility.yul\":6888:6894   */\n      dup5\n        /* \"#utility.yul\":6826:6901   */\n      tag_61\n      jump\t// in\n    tag_140:\n        /* \"#utility.yul\":6926:6928   */\n      0x20\n        /* \"#utility.yul\":6921:6924   */\n      dup3\n        /* \"#utility.yul\":6917:6929   */\n      add\n        /* \"#utility.yul\":6910:6929   */\n      swap2\n      pop\n        /* \"#utility.yul\":6946:6949   */\n      dup2\n        /* \"#utility.yul\":6939:6949   */\n      swap1\n      pop\n        /* \"#utility.yul\":6539:6955   */\n      swap4\n      swap3\n      pop\n      pop\n      pop\n      jump\t// out\n\n    auxdata: 0xa26469706673582212209000368f1f1da93cbd29329c8e45f96b4e7b39249130241e4a4131945163feea64736f6c63430008110033\n}\n",
				"bytecode": {
					"linkReferences": {},
					"object": "608060405234801561001057600080fd5b50336000806101000a81548173ffffffffffffffffffffffffffffffffffffffff021916908373ffffffffffffffffffffffffffffffffffffffff16021790555061056f806100606000396000f3fe608060405234801561001057600080fd5b50600436106100575760003560e01c806306661abd1461005c57806312065fe01461007a57806338cc4831146100985780633c8be020146100b657806346b349bb146100e6575b600080fd5b610064610104565b60405161007191906101ba565b60405180910390f35b61008261010a565b60405161008f91906101ba565b60405180910390f35b6100a0610112565b6040516100ad9190610216565b60405180910390f35b6100d060048036038101906100cb91906103b7565b61011a565b6040516100dd9190610492565b60405180910390f35b6100ee61017d565b6040516100fb9190610216565b60405180910390f35b60015481565b600047905090565b600030905090565b60607f79e93bf8a58273e1783d4d62cba0d5294e0b58896f98eec2ef883d3cc69b16c43360405161014b9190610216565b60405180910390a18282604051602001610166929190610511565b604051602081830303815290604052905092915050565b60008054906101000a900473ffffffffffffffffffffffffffffffffffffffff1681565b6000819050919050565b6101b4816101a1565b82525050565b60006020820190506101cf60008301846101ab565b92915050565b600073ffffffffffffffffffffffffffffffffffffffff82169050919050565b6000610200826101d5565b9050919050565b610210816101f5565b82525050565b600060208201905061022b6000830184610207565b92915050565b6000604051905090565b600080fd5b600080fd5b600080fd5b600080fd5b6000601f19601f8301169050919050565b7f4e487b7100000000000000000000000000000000000000000000000000000000600052604160045260246000fd5b6102988261024f565b810181811067ffffffffffffffff821117156102b7576102b6610260565b5b80604052505050565b60006102ca610231565b90506102d6828261028f565b919050565b600067ffffffffffffffff8211156102f6576102f5610260565b5b6102ff8261024f565b9050602081019050919050565b82818337600083830152505050565b600061032e610329846102db565b6102c0565b90508281526020810184848401111561034a5761034961024a565b5b61035584828561030c565b509392505050565b600082601f83011261037257610371610245565b5b813561038284826020860161031b565b91505092915050565b610394816101a1565b811461039f57600080fd5b50565b6000813590506103b18161038b565b92915050565b600080604083850312156103ce576103cd61023b565b5b600083013567ffffffffffffffff8111156103ec576103eb610240565b5b6103f88582860161035d565b9250506020610409858286016103a2565b9150509250929050565b600081519050919050565b600082825260208201905092915050565b60005b8381101561044d578082015181840152602081019050610432565b60008484015250505050565b600061046482610413565b61046e818561041e565b935061047e81856020860161042f565b6104878161024f565b840191505092915050565b600060208201905081810360008301526104ac8184610459565b905092915050565b600081905092915050565b60006104ca82610413565b6104d481856104b4565b93506104e481856020860161042f565b80840191505092915050565b6000819050919050565b61050b610506826101a1565b6104f0565b82525050565b600061051d82856104bf565b915061052982846104fa565b602082019150819050939250505056fea26469706673582212209000368f1f1da93cbd29329c8e45f96b4e7b39249130241e4a4131945163feea64736f6c63430008110033",
					"opcodes": "PUSH1 0x80 PUSH1 0x40 MSTORE CALLVALUE DUP1 ISZERO PUSH2 0x10 JUMPI PUSH1 0x0 DUP1 REVERT JUMPDEST POP CALLER PUSH1 0x0 DUP1 PUSH2 0x100 EXP DUP2 SLOAD DUP2 PUSH20 0xFFFFFFFFFFFFFFFFFFFFFFFFFFFFFFFFFFFFFFFF MUL NOT AND SWAP1 DUP4 PUSH20 0xFFFFFFFFFFFFFFFFFFFFFFFFFFFFFFFFFFFFFFFF AND MUL OR SWAP1 SSTORE POP PUSH2 0x56F DUP1 PUSH2 0x60 PUSH1 0x0 CODECOPY PUSH1 0x0 RETURN INVALID PUSH1 0x80 PUSH1 0x40 MSTORE CALLVALUE DUP1 ISZERO PUSH2 0x10 JUMPI PUSH1 0x0 DUP1 REVERT JUMPDEST POP PUSH1 0x4 CALLDATASIZE LT PUSH2 0x57 JUMPI PUSH1 0x0 CALLDATALOAD PUSH1 0xE0 SHR DUP1 PUSH4 0x6661ABD EQ PUSH2 0x5C JUMPI DUP1 PUSH4 0x12065FE0 EQ PUSH2 0x7A JUMPI DUP1 PUSH4 0x38CC4831 EQ PUSH2 0x98 JUMPI DUP1 PUSH4 0x3C8BE020 EQ PUSH2 0xB6 JUMPI DUP1 PUSH4 0x46B349BB EQ PUSH2 0xE6 JUMPI JUMPDEST PUSH1 0x0 DUP1 REVERT JUMPDEST PUSH2 0x64 PUSH2 0x104 JUMP JUMPDEST PUSH1 0x40 MLOAD PUSH2 0x71 SWAP2 SWAP1 PUSH2 0x1BA JUMP JUMPDEST PUSH1 0x40 MLOAD DUP1 SWAP2 SUB SWAP1 RETURN JUMPDEST PUSH2 0x82 PUSH2 0x10A JUMP JUMPDEST PUSH1 0x40 MLOAD PUSH2 0x8F SWAP2 SWAP1 PUSH2 0x1BA JUMP JUMPDEST PUSH1 0x40 MLOAD DUP1 SWAP2 SUB SWAP1 RETURN JUMPDEST PUSH2 0xA0 PUSH2 0x112 JUMP JUMPDEST PUSH1 0x40 MLOAD PUSH2 0xAD SWAP2 SWAP1 PUSH2 0x216 JUMP JUMPDEST PUSH1 0x40 MLOAD DUP1 SWAP2 SUB SWAP1 RETURN JUMPDEST PUSH2 0xD0 PUSH1 0x4 DUP1 CALLDATASIZE SUB DUP2 ADD SWAP1 PUSH2 0xCB SWAP2 SWAP1 PUSH2 0x3B7 JUMP JUMPDEST PUSH2 0x11A JUMP JUMPDEST PUSH1 0x40 MLOAD PUSH2 0xDD SWAP2 SWAP1 PUSH2 0x492 JUMP JUMPDEST PUSH1 0x40 MLOAD DUP1 SWAP2 SUB SWAP1 RETURN JUMPDEST PUSH2 0xEE PUSH2 0x17D JUMP JUMPDEST PUSH1 0x40 MLOAD PUSH2 0xFB SWAP2 SWAP1 PUSH2 0x216 JUMP JUMPDEST PUSH1 0x40 MLOAD DUP1 SWAP2 SUB SWAP1 RETURN JUMPDEST PUSH1 0x1 SLOAD DUP2 JUMP JUMPDEST PUSH1 0x0 SELFBALANCE SWAP1 POP SWAP1 JUMP JUMPDEST PUSH1 0x0 ADDRESS SWAP1 POP SWAP1 JUMP JUMPDEST PUSH1 0x60 PUSH32 0x79E93BF8A58273E1783D4D62CBA0D5294E0B58896F98EEC2EF883D3CC69B16C4 CALLER PUSH1 0x40 MLOAD PUSH2 0x14B SWAP2 SWAP1 PUSH2 0x216 JUMP JUMPDEST PUSH1 0x40 MLOAD DUP1 SWAP2 SUB SWAP1 LOG1 DUP3 DUP3 PUSH1 0x40 MLOAD PUSH1 0x20 ADD PUSH2 0x166 SWAP3 SWAP2 SWAP1 PUSH2 0x511 JUMP JUMPDEST PUSH1 0x40 MLOAD PUSH1 0x20 DUP2 DUP4 SUB SUB DUP2 MSTORE SWAP1 PUSH1 0x40 MSTORE SWAP1 POP SWAP3 SWAP2 POP POP JUMP JUMPDEST PUSH1 0x0 DUP1 SLOAD SWAP1 PUSH2 0x100 EXP SWAP1 DIV PUSH20 0xFFFFFFFFFFFFFFFFFFFFFFFFFFFFFFFFFFFFFFFF AND DUP2 JUMP JUMPDEST PUSH1 0x0 DUP2 SWAP1 POP SWAP2 SWAP1 POP JUMP JUMPDEST PUSH2 0x1B4 DUP2 PUSH2 0x1A1 JUMP JUMPDEST DUP3 MSTORE POP POP JUMP JUMPDEST PUSH1 0x0 PUSH1 0x20 DUP3 ADD SWAP1 POP PUSH2 0x1CF PUSH1 0x0 DUP4 ADD DUP5 PUSH2 0x1AB JUMP JUMPDEST SWAP3 SWAP2 POP POP JUMP JUMPDEST PUSH1 0x0 PUSH20 0xFFFFFFFFFFFFFFFFFFFFFFFFFFFFFFFFFFFFFFFF DUP3 AND SWAP1 POP SWAP2 SWAP1 POP JUMP JUMPDEST PUSH1 0x0 PUSH2 0x200 DUP3 PUSH2 0x1D5 JUMP JUMPDEST SWAP1 POP SWAP2 SWAP1 POP JUMP JUMPDEST PUSH2 0x210 DUP2 PUSH2 0x1F5 JUMP JUMPDEST DUP3 MSTORE POP POP JUMP JUMPDEST PUSH1 0x0 PUSH1 0x20 DUP3 ADD SWAP1 POP PUSH2 0x22B PUSH1 0x0 DUP4 ADD DUP5 PUSH2 0x207 JUMP JUMPDEST SWAP3 SWAP2 POP POP JUMP JUMPDEST PUSH1 0x0 PUSH1 0x40 MLOAD SWAP1 POP SWAP1 JUMP JUMPDEST PUSH1 0x0 DUP1 REVERT JUMPDEST PUSH1 0x0 DUP1 REVERT JUMPDEST PUSH1 0x0 DUP1 REVERT JUMPDEST PUSH1 0x0 DUP1 REVERT JUMPDEST PUSH1 0x0 PUSH1 0x1F NOT PUSH1 0x1F DUP4 ADD AND SWAP1 POP SWAP2 SWAP1 POP JUMP JUMPDEST PUSH32 0x4E487B7100000000000000000000000000000000000000000000000000000000 PUSH1 0x0 MSTORE PUSH1 0x41 PUSH1 0x4 MSTORE PUSH1 0x24 PUSH1 0x0 REVERT JUMPDEST PUSH2 0x298 DUP3 PUSH2 0x24F JUMP JUMPDEST DUP2 ADD DUP2 DUP2 LT PUSH8 0xFFFFFFFFFFFFFFFF DUP3 GT OR ISZERO PUSH2 0x2B7 JUMPI PUSH2 0x2B6 PUSH2 0x260 JUMP JUMPDEST JUMPDEST DUP1 PUSH1 0x40 MSTORE POP POP POP JUMP JUMPDEST PUSH1 0x0 PUSH2 0x2CA PUSH2 0x231 JUMP JUMPDEST SWAP1 POP PUSH2 0x2D6 DUP3 DUP3 PUSH2 0x28F JUMP JUMPDEST SWAP2 SWAP1 POP JUMP JUMPDEST PUSH1 0x0 PUSH8 0xFFFFFFFFFFFFFFFF DUP3 GT ISZERO PUSH2 0x2F6 JUMPI PUSH2 0x2F5 PUSH2 0x260 JUMP JUMPDEST JUMPDEST PUSH2 0x2FF DUP3 PUSH2 0x24F JUMP JUMPDEST SWAP1 POP PUSH1 0x20 DUP2 ADD SWAP1 POP SWAP2 SWAP1 POP JUMP JUMPDEST DUP3 DUP2 DUP4 CALLDATACOPY PUSH1 0x0 DUP4 DUP4 ADD MSTORE POP POP POP JUMP JUMPDEST PUSH1 0x0 PUSH2 0x32E PUSH2 0x329 DUP5 PUSH2 0x2DB JUMP JUMPDEST PUSH2 0x2C0 JUMP JUMPDEST SWAP1 POP DUP3 DUP2 MSTORE PUSH1 0x20 DUP2 ADD DUP5 DUP5 DUP5 ADD GT ISZERO PUSH2 0x34A JUMPI PUSH2 0x349 PUSH2 0x24A JUMP JUMPDEST JUMPDEST PUSH2 0x355 DUP5 DUP3 DUP6 PUSH2 0x30C JUMP JUMPDEST POP SWAP4 SWAP3 POP POP POP JUMP JUMPDEST PUSH1 0x0 DUP3 PUSH1 0x1F DUP4 ADD SLT PUSH2 0x372 JUMPI PUSH2 0x371 PUSH2 0x245 JUMP JUMPDEST JUMPDEST DUP2 CALLDATALOAD PUSH2 0x382 DUP5 DUP3 PUSH1 0x20 DUP7 ADD PUSH2 0x31B JUMP JUMPDEST SWAP2 POP POP SWAP3 SWAP2 POP POP JUMP JUMPDEST PUSH2 0x394 DUP2 PUSH2 0x1A1 JUMP JUMPDEST DUP2 EQ PUSH2 0x39F JUMPI PUSH1 0x0 DUP1 REVERT JUMPDEST POP JUMP JUMPDEST PUSH1 0x0 DUP2 CALLDATALOAD SWAP1 POP PUSH2 0x3B1 DUP2 PUSH2 0x38B JUMP JUMPDEST SWAP3 SWAP2 POP POP JUMP JUMPDEST PUSH1 0x0 DUP1 PUSH1 0x40 DUP4 DUP6 SUB SLT ISZERO PUSH2 0x3CE JUMPI PUSH2 0x3CD PUSH2 0x23B JUMP JUMPDEST JUMPDEST PUSH1 0x0 DUP4 ADD CALLDATALOAD PUSH8 0xFFFFFFFFFFFFFFFF DUP2 GT ISZERO PUSH2 0x3EC JUMPI PUSH2 0x3EB PUSH2 0x240 JUMP JUMPDEST JUMPDEST PUSH2 0x3F8 DUP6 DUP3 DUP7 ADD PUSH2 0x35D JUMP JUMPDEST SWAP3 POP POP PUSH1 0x20 PUSH2 0x409 DUP6 DUP3 DUP7 ADD PUSH2 0x3A2 JUMP JUMPDEST SWAP2 POP POP SWAP3 POP SWAP3 SWAP1 POP JUMP JUMPDEST PUSH1 0x0 DUP2 MLOAD SWAP1 POP SWAP2 SWAP1 POP JUMP JUMPDEST PUSH1 0x0 DUP3 DUP3 MSTORE PUSH1 0x20 DUP3 ADD SWAP1 POP SWAP3 SWAP2 POP POP JUMP JUMPDEST PUSH1 0x0 JUMPDEST DUP4 DUP2 LT ISZERO PUSH2 0x44D JUMPI DUP1 DUP3 ADD MLOAD DUP2 DUP5 ADD MSTORE PUSH1 0x20 DUP2 ADD SWAP1 POP PUSH2 0x432 JUMP JUMPDEST PUSH1 0x0 DUP5 DUP5 ADD MSTORE POP POP POP POP JUMP JUMPDEST PUSH1 0x0 PUSH2 0x464 DUP3 PUSH2 0x413 JUMP JUMPDEST PUSH2 0x46E DUP2 DUP6 PUSH2 0x41E JUMP JUMPDEST SWAP4 POP PUSH2 0x47E DUP2 DUP6 PUSH1 0x20 DUP7 ADD PUSH2 0x42F JUMP JUMPDEST PUSH2 0x487 DUP2 PUSH2 0x24F JUMP JUMPDEST DUP5 ADD SWAP2 POP POP SWAP3 SWAP2 POP POP JUMP JUMPDEST PUSH1 0x0 PUSH1 0x20 DUP3 ADD SWAP1 POP DUP2 DUP2 SUB PUSH1 0x0 DUP4 ADD MSTORE PUSH2 0x4AC DUP2 DUP5 PUSH2 0x459 JUMP JUMPDEST SWAP1 POP SWAP3 SWAP2 POP POP JUMP JUMPDEST PUSH1 0x0 DUP2 SWAP1 POP SWAP3 SWAP2 POP POP JUMP JUMPDEST PUSH1 0x0 PUSH2 0x4CA DUP3 PUSH2 0x413 JUMP JUMPDEST PUSH2 0x4D4 DUP2 DUP6 PUSH2 0x4B4 JUMP JUMPDEST SWAP4 POP PUSH2 0x4E4 DUP2 DUP6 PUSH1 0x20 DUP7 ADD PUSH2 0x42F JUMP JUMPDEST DUP1 DUP5 ADD SWAP2 POP POP SWAP3 SWAP2 POP POP JUMP JUMPDEST PUSH1 0x0 DUP2 SWAP1 POP SWAP2 SWAP1 POP JUMP JUMPDEST PUSH2 0x50B PUSH2 0x506 DUP3 PUSH2 0x1A1 JUMP JUMPDEST PUSH2 0x4F0 JUMP JUMPDEST DUP3 MSTORE POP POP JUMP JUMPDEST PUSH1 0x0 PUSH2 0x51D DUP3 DUP6 PUSH2 0x4BF JUMP JUMPDEST SWAP2 POP PUSH2 0x529 DUP3 DUP5 PUSH2 0x4FA JUMP JUMPDEST PUSH1 0x20 DUP3 ADD SWAP2 POP DUP2 SWAP1 POP SWAP4 SWAP3 POP POP POP JUMP INVALID LOG2 PUSH5 0x6970667358 0x22 SLT KECCAK256 SWAP1 STOP CALLDATASIZE DUP16 0x1F SAR 0xA9 EXTCODECOPY 0xBD 0x29 ORIGIN SWAP13 DUP15 GASLIMIT 0xF9 PUSH12 0x4E7B39249130241E4A413194 MLOAD PUSH4 0xFEEA6473 PUSH16 0x6C634300081100330000000000000000 "
				},
				"gasEstimates": {
					"creation": {
						"codeDepositCost": "278200",
						"executionCost": "24584",
						"totalCost": "302784"
					},
					"external": {
						"ArtistOwner()": "2577",
						"count()": "2407",
						"getAddress()": "407",
						"getBalance()": "339",
						"signMRC(string,uint256)": "infinite"
					}
				},
				"methodIdentifiers": {
					"ArtistOwner()": "46b349bb",
					"count()": "06661abd",
					"getAddress()": "38cc4831",
					"getBalance()": "12065fe0",
					"signMRC(string,uint256)": "3c8be020"
				}
			},
			"storageLayout": {
				"storage": [
					{
						"astId": 3,
						"contract": "contracts/Artist.sol:Artist",
						"label": "ArtistOwner",
						"offset": 0,
						"slot": "0",
						"type": "t_address"
					},
					{
						"astId": 9,
						"contract": "contracts/Artist.sol:Artist",
						"label": "count",
						"offset": 0,
						"slot": "1",
						"type": "t_uint256"
					}
				],
				"types": {
					"t_address": {
						"encoding": "inplace",
						"label": "address",
						"numberOfBytes": "20"
					},
					"t_uint256": {
						"encoding": "inplace",
						"label": "uint256",
						"numberOfBytes": "32"
					}
				}
			},
			"userdoc": {
				"kind": "user",
				"methods": {},
				"version": 1
			}
		}
	}
}