{
	"data": {
		"bytecode": {
			"linkReferences": {},
			"object": "608060405234801561001057600080fd5b506102e0806100206000396000f3fe608060405234801561001057600080fd5b506004361061004c5760003560e01c806312065fe0146100515780633ccfd60b1461006f5780633e0776471461008d578063b93f9b0a146100a9575b600080fd5b6100596100d9565b604051610066919061014d565b60405180910390f35b6100776100de565b604051610084919061014d565b60405180910390f35b6100a760048036038101906100a291906101cb565b6100e3565b005b6100c360048036038101906100be9190610224565b6100e6565b6040516100d09190610260565b60405180910390f35b600090565b600090565b50565b60008082815481106100fb576100fa61027b565b5b906000526020600020906002020160000160009054906101000a900473ffffffffffffffffffffffffffffffffffffffff169050919050565b6000819050919050565b61014781610134565b82525050565b6000602082019050610162600083018461013e565b92915050565b600080fd5b600073ffffffffffffffffffffffffffffffffffffffff82169050919050565b60006101988261016d565b9050919050565b6101a88161018d565b81146101b357600080fd5b50565b6000813590506101c58161019f565b92915050565b6000602082840312156101e1576101e0610168565b5b60006101ef848285016101b6565b91505092915050565b61020181610134565b811461020c57600080fd5b50565b60008135905061021e816101f8565b92915050565b60006020828403121561023a57610239610168565b5b60006102488482850161020f565b91505092915050565b61025a8161018d565b82525050565b60006020820190506102756000830184610251565b92915050565b7f4e487b7100000000000000000000000000000000000000000000000000000000600052603260045260246000fdfea2646970667358221220b455d6da9ec29baba7ad5dbf6acc8701c3bf4182bf178d6fc0b9d9225e85648f64736f6c63430008110033",
			"opcodes": "PUSH1 0x80 PUSH1 0x40 MSTORE CALLVALUE DUP1 ISZERO PUSH2 0x10 JUMPI PUSH1 0x0 DUP1 REVERT JUMPDEST POP PUSH2 0x2E0 DUP1 PUSH2 0x20 PUSH1 0x0 CODECOPY PUSH1 0x0 RETURN INVALID PUSH1 0x80 PUSH1 0x40 MSTORE CALLVALUE DUP1 ISZERO PUSH2 0x10 JUMPI PUSH1 0x0 DUP1 REVERT JUMPDEST POP PUSH1 0x4 CALLDATASIZE LT PUSH2 0x4C JUMPI PUSH1 0x0 CALLDATALOAD PUSH1 0xE0 SHR DUP1 PUSH4 0x12065FE0 EQ PUSH2 0x51 JUMPI DUP1 PUSH4 0x3CCFD60B EQ PUSH2 0x6F JUMPI DUP1 PUSH4 0x3E077647 EQ PUSH2 0x8D JUMPI DUP1 PUSH4 0xB93F9B0A EQ PUSH2 0xA9 JUMPI JUMPDEST PUSH1 0x0 DUP1 REVERT JUMPDEST PUSH2 0x59 PUSH2 0xD9 JUMP JUMPDEST PUSH1 0x40 MLOAD PUSH2 0x66 SWAP2 SWAP1 PUSH2 0x14D JUMP JUMPDEST PUSH1 0x40 MLOAD DUP1 SWAP2 SUB SWAP1 RETURN JUMPDEST PUSH2 0x77 PUSH2 0xDE JUMP JUMPDEST PUSH1 0x40 MLOAD PUSH2 0x84 SWAP2 SWAP1 PUSH2 0x14D JUMP JUMPDEST PUSH1 0x40 MLOAD DUP1 SWAP2 SUB SWAP1 RETURN JUMPDEST PUSH2 0xA7 PUSH1 0x4 DUP1 CALLDATASIZE SUB DUP2 ADD SWAP1 PUSH2 0xA2 SWAP2 SWAP1 PUSH2 0x1CB JUMP JUMPDEST PUSH2 0xE3 JUMP JUMPDEST STOP JUMPDEST PUSH2 0xC3 PUSH1 0x4 DUP1 CALLDATASIZE SUB DUP2 ADD SWAP1 PUSH2 0xBE SWAP2 SWAP1 PUSH2 0x224 JUMP JUMPDEST PUSH2 0xE6 JUMP JUMPDEST PUSH1 0x40 MLOAD PUSH2 0xD0 SWAP2 SWAP1 PUSH2 0x260 JUMP JUMPDEST PUSH1 0x40 MLOAD DUP1 SWAP2 SUB SWAP1 RETURN JUMPDEST PUSH1 0x0 SWAP1 JUMP JUMPDEST PUSH1 0x0 SWAP1 JUMP JUMPDEST POP JUMP JUMPDEST PUSH1 0x0 DUP1 DUP3 DUP2 SLOAD DUP2 LT PUSH2 0xFB JUMPI PUSH2 0xFA PUSH2 0x27B JUMP JUMPDEST JUMPDEST SWAP1 PUSH1 0x0 MSTORE PUSH1 0x20 PUSH1 0x0 KECCAK256 SWAP1 PUSH1 0x2 MUL ADD PUSH1 0x0 ADD PUSH1 0x0 SWAP1 SLOAD SWAP1 PUSH2 0x100 EXP SWAP1 DIV PUSH20 0xFFFFFFFFFFFFFFFFFFFFFFFFFFFFFFFFFFFFFFFF AND SWAP1 POP SWAP2 SWAP1 POP JUMP JUMPDEST PUSH1 0x0 DUP2 SWAP1 POP SWAP2 SWAP1 POP JUMP JUMPDEST PUSH2 0x147 DUP2 PUSH2 0x134 JUMP JUMPDEST DUP3 MSTORE POP POP JUMP JUMPDEST PUSH1 0x0 PUSH1 0x20 DUP3 ADD SWAP1 POP PUSH2 0x162 PUSH1 0x0 DUP4 ADD DUP5 PUSH2 0x13E JUMP JUMPDEST SWAP3 SWAP2 POP POP JUMP JUMPDEST PUSH1 0x0 DUP1 REVERT JUMPDEST PUSH1 0x0 PUSH20 0xFFFFFFFFFFFFFFFFFFFFFFFFFFFFFFFFFFFFFFFF DUP3 AND SWAP1 POP SWAP2 SWAP1 POP JUMP JUMPDEST PUSH1 0x0 PUSH2 0x198 DUP3 PUSH2 0x16D JUMP JUMPDEST SWAP1 POP SWAP2 SWAP1 POP JUMP JUMPDEST PUSH2 0x1A8 DUP2 PUSH2 0x18D JUMP JUMPDEST DUP2 EQ PUSH2 0x1B3 JUMPI PUSH1 0x0 DUP1 REVERT JUMPDEST POP JUMP JUMPDEST PUSH1 0x0 DUP2 CALLDATALOAD SWAP1 POP PUSH2 0x1C5 DUP2 PUSH2 0x19F JUMP JUMPDEST SWAP3 SWAP2 POP POP JUMP JUMPDEST PUSH1 0x0 PUSH1 0x20 DUP3 DUP5 SUB SLT ISZERO PUSH2 0x1E1 JUMPI PUSH2 0x1E0 PUSH2 0x168 JUMP JUMPDEST JUMPDEST PUSH1 0x0 PUSH2 0x1EF DUP5 DUP3 DUP6 ADD PUSH2 0x1B6 JUMP JUMPDEST SWAP2 POP POP SWAP3 SWAP2 POP POP JUMP JUMPDEST PUSH2 0x201 DUP2 PUSH2 0x134 JUMP JUMPDEST DUP2 EQ PUSH2 0x20C JUMPI PUSH1 0x0 DUP1 REVERT JUMPDEST POP JUMP JUMPDEST PUSH1 0x0 DUP2 CALLDATALOAD SWAP1 POP PUSH2 0x21E DUP2 PUSH2 0x1F8 JUMP JUMPDEST SWAP3 SWAP2 POP POP JUMP JUMPDEST PUSH1 0x0 PUSH1 0x20 DUP3 DUP5 SUB SLT ISZERO PUSH2 0x23A JUMPI PUSH2 0x239 PUSH2 0x168 JUMP JUMPDEST JUMPDEST PUSH1 0x0 PUSH2 0x248 DUP5 DUP3 DUP6 ADD PUSH2 0x20F JUMP JUMPDEST SWAP2 POP POP SWAP3 SWAP2 POP POP JUMP JUMPDEST PUSH2 0x25A DUP2 PUSH2 0x18D JUMP JUMPDEST DUP3 MSTORE POP POP JUMP JUMPDEST PUSH1 0x0 PUSH1 0x20 DUP3 ADD SWAP1 POP PUSH2 0x275 PUSH1 0x0 DUP4 ADD DUP5 PUSH2 0x251 JUMP JUMPDEST SWAP3 SWAP2 POP POP JUMP JUMPDEST PUSH32 0x4E487B7100000000000000000000000000000000000000000000000000000000 PUSH1 0x0 MSTORE PUSH1 0x32 PUSH1 0x4 MSTORE PUSH1 0x24 PUSH1 0x0 REVERT INVALID LOG2 PUSH5 0x6970667358 0x22 SLT KECCAK256 0xB4 SSTORE 0xD6 0xDA SWAP15 0xC2 SWAP12 0xAB 0xA7 0xAD 0x5D 0xBF PUSH11 0xCC8701C3BF4182BF178D6F 0xC0 0xB9 0xD9 0x22 0x5E DUP6 PUSH5 0x8F64736F6C PUSH4 0x43000811 STOP CALLER "
		},
		"gasEstimates": {
			"creation": {
				"codeDepositCost": "147200",
				"executionCost": "190",
				"totalCost": "147390"
			},
			"external": {
				"getAddress(uint256)": "5028",
				"getBalance()": "307",
				"getMRC(address)": "477",
				"withdraw()": "329"
			}
		},
		"methodIdentifiers": {
			"getAddress(uint256)": "b93f9b0a",
			"getBalance()": "12065fe0",
			"getMRC(address)": "3e077647",
			"withdraw()": "3ccfd60b"
		}
	},
	"abi": [
		{
			"inputs": [
				{
					"internalType": "uint256",
					"name": "_id",
					"type": "uint256"
				}
			],
			"name": "getAddress",
			"outputs": [
				{
					"internalType": "address",
					"name": "",
					"type": "address"
				}
			],
			"stateMutability": "view",
			"type": "function"
		},
		{
			"inputs": [],
			"name": "getBalance",
			"outputs": [
				{
					"internalType": "uint256",
					"name": "",
					"type": "uint256"
				}
			],
			"stateMutability": "view",
			"type": "function"
		},
		{
			"inputs": [
				{
					"internalType": "address",
					"name": "_contractAddress",
					"type": "address"
				}
			],
			"name": "getMRC",
			"outputs": [],
			"stateMutability": "nonpayable",
			"type": "function"
		},
		{
			"inputs": [],
			"name": "withdraw",
			"outputs": [
				{
					"internalType": "uint256",
					"name": "",
					"type": "uint256"
				}
			],
			"stateMutability": "view",
			"type": "function"
		}
	]
}